{
  "address": "0x5FbDB2315678afecb367f032d93F642f64180aa3",
  "abi": [
    {
      "inputs": [],
      "stateMutability": "nonpayable",
      "type": "constructor"
    },
    {
      "inputs": [
        {
          "internalType": "address",
          "name": "",
          "type": "address"
        }
      ],
      "name": "balances",
      "outputs": [
        {
          "internalType": "uint256",
          "name": "",
          "type": "uint256"
        }
      ],
      "stateMutability": "view",
      "type": "function"
    },
    {
      "inputs": [
        {
          "internalType": "uint256",
          "name": "_amount",
          "type": "uint256"
        }
      ],
      "name": "depositDai",
      "outputs": [
        {
          "internalType": "bool",
          "name": "success",
          "type": "bool"
        }
      ],
      "stateMutability": "nonpayable",
      "type": "function"
    },
    {
      "inputs": [],
      "name": "getInterestRate",
      "outputs": [
        {
          "components": [
            {
              "components": [
                {
                  "internalType": "uint256",
                  "name": "data",
                  "type": "uint256"
                }
              ],
              "internalType": "struct DataTypes.ReserveConfigurationMap",
              "name": "configuration",
              "type": "tuple"
            },
            {
              "internalType": "uint128",
              "name": "liquidityIndex",
              "type": "uint128"
            },
            {
              "internalType": "uint128",
              "name": "currentLiquidityRate",
              "type": "uint128"
            },
            {
              "internalType": "uint128",
              "name": "variableBorrowIndex",
              "type": "uint128"
            },
            {
              "internalType": "uint128",
              "name": "currentVariableBorrowRate",
              "type": "uint128"
            },
            {
              "internalType": "uint128",
              "name": "currentStableBorrowRate",
              "type": "uint128"
            },
            {
              "internalType": "uint40",
              "name": "lastUpdateTimestamp",
              "type": "uint40"
            },
            {
              "internalType": "uint16",
              "name": "id",
              "type": "uint16"
            },
            {
              "internalType": "address",
              "name": "aTokenAddress",
              "type": "address"
            },
            {
              "internalType": "address",
              "name": "stableDebtTokenAddress",
              "type": "address"
            },
            {
              "internalType": "address",
              "name": "variableDebtTokenAddress",
              "type": "address"
            },
            {
              "internalType": "address",
              "name": "interestRateStrategyAddress",
              "type": "address"
            },
            {
              "internalType": "uint128",
              "name": "accruedToTreasury",
              "type": "uint128"
            },
            {
              "internalType": "uint128",
              "name": "unbacked",
              "type": "uint128"
            },
            {
              "internalType": "uint128",
              "name": "isolationModeTotalDebt",
              "type": "uint128"
            }
          ],
          "internalType": "struct DataTypes.ReserveData",
          "name": "reserveData",
          "type": "tuple"
        }
      ],
      "stateMutability": "view",
      "type": "function"
    },
    {
      "inputs": [],
      "name": "purpose",
      "outputs": [
        {
          "internalType": "string",
          "name": "",
          "type": "string"
        }
      ],
      "stateMutability": "view",
      "type": "function"
    },
    {
      "inputs": [],
      "name": "reclaimInteret",
      "outputs": [],
      "stateMutability": "nonpayable",
      "type": "function"
    },
    {
      "inputs": [
        {
          "internalType": "string",
          "name": "_purpose",
          "type": "string"
        }
      ],
      "name": "setPurpose",
      "outputs": [],
      "stateMutability": "nonpayable",
      "type": "function"
    },
    {
      "inputs": [],
      "name": "transferFundsToPool",
      "outputs": [],
      "stateMutability": "nonpayable",
      "type": "function"
    },
    {
      "inputs": [],
      "name": "withdraw",
      "outputs": [],
      "stateMutability": "nonpayable",
      "type": "function"
    }
  ],
  "transactionHash": "0xf3cc2ace155ec3e0e55a375411510baff0e522ffbd8f6b5020d54e2fde18972f",
  "args": [],
  "numDeployments": 1,
  "solcInputHash": "8ec6428613328d0b7bcee21b04a20037",
  "bytecode": "0x60c06040526006608081905265486f6c69732160d01b60a090815262000029916005919062000174565b50600680546001600160a01b031990811673794a61358d6845594f94dc1db02a252b5b4814ad179091556008805482167382e64f49ed5ec1bc6e43dad4fc8af9bb3a2312ee17905560098054909116738f3cf7ad23cd3cadbd9735aff958023239c6a0631790553480156200009d57600080fd5b50600080546001600160a01b0319163390811790915560408051808201909152600981526837bbb732b91032b99d60b91b602080830191909152620000ec929062000a3662000102821b17901c565b620000f942603c6200021a565b600155620002e7565b6200014f82826040516024016200011b92919062000241565b60408051601f198184030181529190526020810180516001600160e01b0390811663319af33360e01b179091526200015316565b5050565b80516a636f6e736f6c652e6c6f67602083016000808483855afa5050505050565b8280546200018290620002aa565b90600052602060002090601f016020900481019282620001a65760008555620001f1565b82601f10620001c157805160ff1916838001178555620001f1565b82800160010185558215620001f1579182015b82811115620001f1578251825591602001919060010190620001d4565b50620001ff92915062000203565b5090565b5b80821115620001ff576000815560010162000204565b600082198211156200023c57634e487b7160e01b600052601160045260246000fd5b500190565b604081526000835180604084015260005b8181101562000271576020818701810151606086840101520162000252565b8181111562000284576000606083860101525b506001600160a01b0393909316602083015250601f91909101601f191601606001919050565b600181811c90821680620002bf57607f821691505b60208210811415620002e157634e487b7160e01b600052602260045260246000fd5b50919050565b610fb080620002f76000396000f3fe608060405234801561001057600080fd5b50600436106100885760003560e01c80635257b5661161005b5780635257b566146100f557806370740aab1461017e5780639a011b6d14610193578063eb68757f1461019b57600080fd5b806312b354c81461008d57806327e235e31461009757806335842f74146100ca5780633ccfd60b146100ed575b600080fd5b6100956101ae565b005b6100b76100a5366004610b84565b60046020526000908152604090205481565b6040519081526020015b60405180910390f35b6100dd6100d8366004610bb4565b610419565b60405190151581526020016100c1565b6100956105c0565b604080516102008101825260006101e08201818152825260208201819052818301819052606082018190526080820181905260a0820181905260c0820181905260e08201819052610100820181905261012082018190526101408201819052610160820181905261018082018190526101a082018190526101c082015290516100c19190610bcd565b610186610762565b6040516100c19190610d54565b6100956107f0565b6100956101a9366004610d7d565b610a1f565b60025442116101fd5760405162461bcd60e51b8152602060048201526016602482015275496e76657273696f6e2061756e20656e20637572736f60501b60448201526064015b60405180910390fd5b6009546040516370a0823160e01b81523060048201526000916001600160a01b0316906370a0823190602401602060405180830381865afa158015610246573d6000803e3d6000fd5b505050506040513d601f19601f8201168201806040525081019061026a9190610e2e565b116102b75760405162461bcd60e51b815260206004820152601b60248201527f4e6f2068617920696e746572657365732061207265636c616d6172000000000060448201526064016101f4565b6003543360009081526004602052604081205490916102d591610e5d565b6009546040516370a0823160e01b81523060048201529192506000916001600160a01b03909116906370a0823190602401602060405180830381865afa158015610323573d6000803e3d6000fd5b505050506040513d601f19601f820116820180604052508101906103479190610e2e565b6103519083610e7f565b905061039f604051806040016040528060088152602001674465706f7369746f60c01b815250836040518060400160405280600881526020016724b73a32b932b99d60c11b81525084610a7b565b60095460405163a9059cbb60e01b8152336004820152602481018390526001600160a01b039091169063a9059cbb906044016020604051808303816000875af11580156103f0573d6000803e3d6000fd5b505050506040513d601f19601f820116820180604052508101906104149190610e9e565b505050565b60006001544211156104835760405162461bcd60e51b815260206004820152602d60248201527f496e736372697063696f6e206e6f20646973706f6e69626c652c20696e76657260448201526c73696f6e20656e20637572736f60981b60648201526084016101f4565b600082116104d35760405162461bcd60e51b815260206004820152601d60248201527f416d6f756e74206d7573742062652067726561746572207468616e203000000060448201526064016101f4565b6009546040516323b872dd60e01b8152336004820152306024820152604481018490526001600160a01b03909116906323b872dd906064016020604051808303816000875af115801561052a573d6000803e3d6000fd5b505050506040513d601f19601f8201168201806040525081019061054e9190610e9e565b9050806105965760405162461bcd60e51b81526020600482015260166024820152754661696c656420746f207472616e736665722044414960501b60448201526064016101f4565b33600090815260046020526040812080548492906105b5908490610ec0565b909155509092915050565b6000546001600160a01b0316331461061a5760405162461bcd60e51b815260206004820152601760248201527f4f6e6c79206f776e65722063616e20776974686472617700000000000000000060448201526064016101f4565b60025442116106645760405162461bcd60e51b8152602060048201526016602482015275496e76657273696f6e2061756e20656e20637572736f60501b60448201526064016101f4565b60085460065460405163095ea7b360e01b81526001600160a01b039182166004820152600019602482015291169063095ea7b3906044016020604051808303816000875af11580156106ba573d6000803e3d6000fd5b505050506040513d601f19601f820116820180604052508101906106de9190610e9e565b50600654600954604051631a4ca37b60e21b81526001600160a01b03918216600482015260001960248201523060448201529116906369328dec906064016020604051808303816000875af115801561073b573d6000803e3d6000fd5b505050506040513d601f19601f8201168201806040525081019061075f9190610e2e565b50565b6005805461076f90610ed8565b80601f016020809104026020016040519081016040528092919081815260200182805461079b90610ed8565b80156107e85780601f106107bd576101008083540402835291602001916107e8565b820191906000526020600020905b8154815290600101906020018083116107cb57829003601f168201915b505050505081565b6000546001600160a01b031633146108585760405162461bcd60e51b815260206004820152602560248201527f4f6e6c79206f776e65722063616e207472616e736665722066756e647320746f604482015264081c1bdbdb60da1b60648201526084016101f4565b60015442116108a95760405162461bcd60e51b815260206004820152601760248201527f496e736372697063696f6e2061756e206162696572746100000000000000000060448201526064016101f4565b6009546040516370a0823160e01b81523060048201526001600160a01b03909116906370a0823190602401602060405180830381865afa1580156108f1573d6000803e3d6000fd5b505050506040513d601f19601f820116820180604052508101906109159190610e2e565b600381905560095460065460405163095ea7b360e01b81526001600160a01b0391821660048201526024810193909352169063095ea7b3906044016020604051808303816000875af115801561096f573d6000803e3d6000fd5b505050506040513d601f19601f820116820180604052508101906109939190610e9e565b5060065460095460035460405163617ba03760e01b81526001600160a01b03928316600482015260248101919091523060448201526000606482015291169063617ba03790608401600060405180830381600087803b1580156109f557600080fd5b505af1158015610a09573d6000803e3d6000fd5b50505050426015610a1a9190610ec0565b600255565b8051610a32906005906020840190610aeb565b5050565b610a328282604051602401610a4c929190610f13565b60408051601f198184030181529190526020810180516001600160e01b031663319af33360e01b179052610aca565b610ac484848484604051602401610a959493929190610f3d565b60408051601f198184030181529190526020810180516001600160e01b031663a0c4b22560e01b179052610aca565b50505050565b80516a636f6e736f6c652e6c6f67602083016000808483855afa5050505050565b828054610af790610ed8565b90600052602060002090601f016020900481019282610b195760008555610b5f565b82601f10610b3257805160ff1916838001178555610b5f565b82800160010185558215610b5f579182015b82811115610b5f578251825591602001919060010190610b44565b50610b6b929150610b6f565b5090565b5b80821115610b6b5760008155600101610b70565b600060208284031215610b9657600080fd5b81356001600160a01b0381168114610bad57600080fd5b9392505050565b600060208284031215610bc657600080fd5b5035919050565b81515181526101e081016020830151610bf160208401826001600160801b03169052565b506040830151610c0c60408401826001600160801b03169052565b506060830151610c2760608401826001600160801b03169052565b506080830151610c4260808401826001600160801b03169052565b5060a0830151610c5d60a08401826001600160801b03169052565b5060c0830151610c7660c084018264ffffffffff169052565b5060e0830151610c8c60e084018261ffff169052565b50610100838101516001600160a01b039081169184019190915261012080850151821690840152610140808501518216908401526101608085015190911690830152610180808401516001600160801b03908116918401919091526101a0808501518216908401526101c09384015116929091019190915290565b6000815180845260005b81811015610d2d57602081850181015186830182015201610d11565b81811115610d3f576000602083870101525b50601f01601f19169290920160200192915050565b602081526000610bad6020830184610d07565b634e487b7160e01b600052604160045260246000fd5b600060208284031215610d8f57600080fd5b813567ffffffffffffffff80821115610da757600080fd5b818401915084601f830112610dbb57600080fd5b813581811115610dcd57610dcd610d67565b604051601f8201601f19908116603f01168101908382118183101715610df557610df5610d67565b81604052828152876020848701011115610e0e57600080fd5b826020860160208301376000928101602001929092525095945050505050565b600060208284031215610e4057600080fd5b5051919050565b634e487b7160e01b600052601160045260246000fd5b600082610e7a57634e487b7160e01b600052601260045260246000fd5b500490565b6000816000190483118215151615610e9957610e99610e47565b500290565b600060208284031215610eb057600080fd5b81518015158114610bad57600080fd5b60008219821115610ed357610ed3610e47565b500190565b600181811c90821680610eec57607f821691505b60208210811415610f0d57634e487b7160e01b600052602260045260246000fd5b50919050565b604081526000610f266040830185610d07565b905060018060a01b03831660208301529392505050565b608081526000610f506080830187610d07565b8560208401528281036040840152610f688186610d07565b9150508260608301529594505050505056fea26469706673582212207337bd4f9cfb16ad6f0a9ccc33e0c1fc436b8059a1de5db60fc105726facd93364736f6c634300080a0033",
  "devdoc": {
    "kind": "dev",
    "methods": {},
    "version": 1
  },
  "userdoc": {
    "kind": "user",
    "methods": {},
    "version": 1
  },
  "storageLayout": {
    "storage": [
      {
        "astId": 1320,
        "contract": "contracts/SavingPool.sol:SavingPool",
        "label": "owner",
        "offset": 0,
        "slot": "0",
        "type": "t_address"
      },
      {
        "astId": 1322,
        "contract": "contracts/SavingPool.sol:SavingPool",
        "label": "startDate",
        "offset": 0,
        "slot": "1",
        "type": "t_uint256"
      },
      {
        "astId": 1324,
        "contract": "contracts/SavingPool.sol:SavingPool",
        "label": "endDate",
        "offset": 0,
        "slot": "2",
        "type": "t_uint256"
      },
      {
        "astId": 1326,
        "contract": "contracts/SavingPool.sol:SavingPool",
        "label": "totalDeposit",
        "offset": 0,
        "slot": "3",
        "type": "t_uint256"
      },
      {
        "astId": 1330,
        "contract": "contracts/SavingPool.sol:SavingPool",
        "label": "balances",
        "offset": 0,
        "slot": "4",
        "type": "t_mapping(t_address,t_uint256)"
      },
      {
        "astId": 1333,
        "contract": "contracts/SavingPool.sol:SavingPool",
        "label": "purpose",
        "offset": 0,
        "slot": "5",
        "type": "t_string_storage"
      },
      {
        "astId": 1339,
        "contract": "contracts/SavingPool.sol:SavingPool",
        "label": "pool",
        "offset": 0,
        "slot": "6",
        "type": "t_contract(IPool)628"
      },
      {
        "astId": 1342,
        "contract": "contracts/SavingPool.sol:SavingPool",
        "label": "dataProvider",
        "offset": 0,
        "slot": "7",
        "type": "t_contract(IPoolDataProvider)878"
      },
      {
        "astId": 1348,
        "contract": "contracts/SavingPool.sol:SavingPool",
        "label": "aDai",
        "offset": 0,
        "slot": "8",
        "type": "t_contract(IERC20)1308"
      },
      {
        "astId": 1354,
        "contract": "contracts/SavingPool.sol:SavingPool",
        "label": "dai",
        "offset": 0,
        "slot": "9",
        "type": "t_contract(IERC20)1308"
      }
    ],
    "types": {
      "t_address": {
        "encoding": "inplace",
        "label": "address",
        "numberOfBytes": "20"
      },
      "t_contract(IERC20)1308": {
        "encoding": "inplace",
        "label": "contract IERC20",
        "numberOfBytes": "20"
      },
      "t_contract(IPool)628": {
        "encoding": "inplace",
        "label": "contract IPool",
        "numberOfBytes": "20"
      },
      "t_contract(IPoolDataProvider)878": {
        "encoding": "inplace",
        "label": "contract IPoolDataProvider",
        "numberOfBytes": "20"
      },
      "t_mapping(t_address,t_uint256)": {
        "encoding": "mapping",
        "key": "t_address",
        "label": "mapping(address => uint256)",
        "numberOfBytes": "32",
        "value": "t_uint256"
      },
      "t_string_storage": {
        "encoding": "bytes",
        "label": "string",
        "numberOfBytes": "32"
      },
      "t_uint256": {
        "encoding": "inplace",
        "label": "uint256",
        "numberOfBytes": "32"
      }
    }
  }
}